{
  "_format": "hh-sol-artifact-1",
  "contractName": "Pengu",
  "sourceName": "contracts/Pengu.sol",
  "abi": [
    {
      "inputs": [],
      "stateMutability": "nonpayable",
      "type": "constructor"
    },
    {
      "anonymous": false,
      "inputs": [
        {
          "indexed": true,
          "internalType": "address",
          "name": "owner",
          "type": "address"
        },
        {
          "indexed": true,
          "internalType": "address",
          "name": "approved",
          "type": "address"
        },
        {
          "indexed": true,
          "internalType": "uint256",
          "name": "tokenId",
          "type": "uint256"
        }
      ],
      "name": "Approval",
      "type": "event"
    },
    {
      "anonymous": false,
      "inputs": [
        {
          "indexed": true,
          "internalType": "address",
          "name": "owner",
          "type": "address"
        },
        {
          "indexed": true,
          "internalType": "address",
          "name": "operator",
          "type": "address"
        },
        {
          "indexed": false,
          "internalType": "bool",
          "name": "approved",
          "type": "bool"
        }
      ],
      "name": "ApprovalForAll",
      "type": "event"
    },
    {
      "anonymous": false,
      "inputs": [
        {
          "indexed": true,
          "internalType": "address",
          "name": "previousOwner",
          "type": "address"
        },
        {
          "indexed": true,
          "internalType": "address",
          "name": "newOwner",
          "type": "address"
        }
      ],
      "name": "OwnershipTransferred",
      "type": "event"
    },
    {
      "anonymous": false,
      "inputs": [
        {
          "indexed": true,
          "internalType": "address",
          "name": "from",
          "type": "address"
        },
        {
          "indexed": true,
          "internalType": "address",
          "name": "to",
          "type": "address"
        },
        {
          "indexed": true,
          "internalType": "uint256",
          "name": "tokenId",
          "type": "uint256"
        }
      ],
      "name": "Transfer",
      "type": "event"
    },
    {
      "inputs": [
        {
          "internalType": "address",
          "name": "to",
          "type": "address"
        },
        {
          "internalType": "uint256",
          "name": "tokenId",
          "type": "uint256"
        }
      ],
      "name": "approve",
      "outputs": [],
      "stateMutability": "nonpayable",
      "type": "function"
    },
    {
      "inputs": [
        {
          "internalType": "address",
          "name": "owner",
          "type": "address"
        }
      ],
      "name": "balanceOf",
      "outputs": [
        {
          "internalType": "uint256",
          "name": "",
          "type": "uint256"
        }
      ],
      "stateMutability": "view",
      "type": "function"
    },
    {
      "inputs": [],
      "name": "cost",
      "outputs": [
        {
          "internalType": "uint256",
          "name": "",
          "type": "uint256"
        }
      ],
      "stateMutability": "view",
      "type": "function"
    },
    {
      "inputs": [],
      "name": "currentBaseURI",
      "outputs": [
        {
          "internalType": "string",
          "name": "",
          "type": "string"
        }
      ],
      "stateMutability": "view",
      "type": "function"
    },
    {
      "inputs": [
        {
          "internalType": "uint256",
          "name": "tokenId",
          "type": "uint256"
        }
      ],
      "name": "getApproved",
      "outputs": [
        {
          "internalType": "address",
          "name": "",
          "type": "address"
        }
      ],
      "stateMutability": "view",
      "type": "function"
    },
    {
      "inputs": [
        {
          "internalType": "address",
          "name": "owner",
          "type": "address"
        },
        {
          "internalType": "address",
          "name": "operator",
          "type": "address"
        }
      ],
      "name": "isApprovedForAll",
      "outputs": [
        {
          "internalType": "bool",
          "name": "",
          "type": "bool"
        }
      ],
      "stateMutability": "view",
      "type": "function"
    },
    {
      "inputs": [],
      "name": "isPaused",
      "outputs": [
        {
          "internalType": "bool",
          "name": "",
          "type": "bool"
        }
      ],
      "stateMutability": "view",
      "type": "function"
    },
    {
      "inputs": [],
      "name": "isRevealed",
      "outputs": [
        {
          "internalType": "bool",
          "name": "",
          "type": "bool"
        }
      ],
      "stateMutability": "view",
      "type": "function"
    },
    {
      "inputs": [],
      "name": "maxAmount",
      "outputs": [
        {
          "internalType": "uint8",
          "name": "",
          "type": "uint8"
        }
      ],
      "stateMutability": "view",
      "type": "function"
    },
    {
      "inputs": [],
      "name": "maxSupply",
      "outputs": [
        {
          "internalType": "uint256",
          "name": "",
          "type": "uint256"
        }
      ],
      "stateMutability": "view",
      "type": "function"
    },
    {
      "inputs": [
        {
          "internalType": "uint8",
          "name": "_mintAmount",
          "type": "uint8"
        }
      ],
      "name": "mint",
      "outputs": [],
      "stateMutability": "payable",
      "type": "function"
    },
    {
      "inputs": [
        {
          "internalType": "uint8",
          "name": "amount",
          "type": "uint8"
        },
        {
          "internalType": "address",
          "name": "_reciever",
          "type": "address"
        }
      ],
      "name": "mintTo",
      "outputs": [],
      "stateMutability": "nonpayable",
      "type": "function"
    },
    {
      "inputs": [],
      "name": "name",
      "outputs": [
        {
          "internalType": "string",
          "name": "",
          "type": "string"
        }
      ],
      "stateMutability": "view",
      "type": "function"
    },
    {
      "inputs": [],
      "name": "owner",
      "outputs": [
        {
          "internalType": "address",
          "name": "",
          "type": "address"
        }
      ],
      "stateMutability": "view",
      "type": "function"
    },
    {
      "inputs": [
        {
          "internalType": "uint256",
          "name": "tokenId",
          "type": "uint256"
        }
      ],
      "name": "ownerOf",
      "outputs": [
        {
          "internalType": "address",
          "name": "",
          "type": "address"
        }
      ],
      "stateMutability": "view",
      "type": "function"
    },
    {
      "inputs": [],
      "name": "prerevealURI",
      "outputs": [
        {
          "internalType": "string",
          "name": "",
          "type": "string"
        }
      ],
      "stateMutability": "view",
      "type": "function"
    },
    {
      "inputs": [],
      "name": "renounceOwnership",
      "outputs": [],
      "stateMutability": "nonpayable",
      "type": "function"
    },
    {
      "inputs": [],
      "name": "reveal",
      "outputs": [],
      "stateMutability": "nonpayable",
      "type": "function"
    },
    {
      "inputs": [
        {
          "internalType": "address",
          "name": "from",
          "type": "address"
        },
        {
          "internalType": "address",
          "name": "to",
          "type": "address"
        },
        {
          "internalType": "uint256",
          "name": "tokenId",
          "type": "uint256"
        }
      ],
      "name": "safeTransferFrom",
      "outputs": [],
      "stateMutability": "nonpayable",
      "type": "function"
    },
    {
      "inputs": [
        {
          "internalType": "address",
          "name": "from",
          "type": "address"
        },
        {
          "internalType": "address",
          "name": "to",
          "type": "address"
        },
        {
          "internalType": "uint256",
          "name": "tokenId",
          "type": "uint256"
        },
        {
          "internalType": "bytes",
          "name": "data",
          "type": "bytes"
        }
      ],
      "name": "safeTransferFrom",
      "outputs": [],
      "stateMutability": "nonpayable",
      "type": "function"
    },
    {
      "inputs": [
        {
          "internalType": "address",
          "name": "operator",
          "type": "address"
        },
        {
          "internalType": "bool",
          "name": "approved",
          "type": "bool"
        }
      ],
      "name": "setApprovalForAll",
      "outputs": [],
      "stateMutability": "nonpayable",
      "type": "function"
    },
    {
      "inputs": [
        {
          "internalType": "string",
          "name": "_newBaseURI",
          "type": "string"
        }
      ],
      "name": "setBaseURI",
      "outputs": [],
      "stateMutability": "nonpayable",
      "type": "function"
    },
    {
      "inputs": [
        {
          "internalType": "uint256",
          "name": "_cost",
          "type": "uint256"
        }
      ],
      "name": "setCost",
      "outputs": [],
      "stateMutability": "nonpayable",
      "type": "function"
    },
    {
      "inputs": [
        {
          "internalType": "bool",
          "name": "_isPaused",
          "type": "bool"
        }
      ],
      "name": "setPaused",
      "outputs": [],
      "stateMutability": "nonpayable",
      "type": "function"
    },
    {
      "inputs": [
        {
          "internalType": "string",
          "name": "_prerevealURI",
          "type": "string"
        }
      ],
      "name": "setPrerevealURI",
      "outputs": [],
      "stateMutability": "nonpayable",
      "type": "function"
    },
    {
      "inputs": [
        {
          "internalType": "bytes4",
          "name": "interfaceId",
          "type": "bytes4"
        }
      ],
      "name": "supportsInterface",
      "outputs": [
        {
          "internalType": "bool",
          "name": "",
          "type": "bool"
        }
      ],
      "stateMutability": "view",
      "type": "function"
    },
    {
      "inputs": [],
      "name": "symbol",
      "outputs": [
        {
          "internalType": "string",
          "name": "",
          "type": "string"
        }
      ],
      "stateMutability": "view",
      "type": "function"
    },
    {
      "inputs": [
        {
          "internalType": "uint256",
          "name": "index",
          "type": "uint256"
        }
      ],
      "name": "tokenByIndex",
      "outputs": [
        {
          "internalType": "uint256",
          "name": "",
          "type": "uint256"
        }
      ],
      "stateMutability": "view",
      "type": "function"
    },
    {
      "inputs": [
        {
          "internalType": "address",
          "name": "owner",
          "type": "address"
        },
        {
          "internalType": "uint256",
          "name": "index",
          "type": "uint256"
        }
      ],
      "name": "tokenOfOwnerByIndex",
      "outputs": [
        {
          "internalType": "uint256",
          "name": "",
          "type": "uint256"
        }
      ],
      "stateMutability": "view",
      "type": "function"
    },
    {
      "inputs": [
        {
          "internalType": "uint256",
          "name": "_tokenId",
          "type": "uint256"
        }
      ],
      "name": "tokenURI",
      "outputs": [
        {
          "internalType": "string",
          "name": "",
          "type": "string"
        }
      ],
      "stateMutability": "view",
      "type": "function"
    },
    {
      "inputs": [],
      "name": "totalSupply",
      "outputs": [
        {
          "internalType": "uint256",
          "name": "",
          "type": "uint256"
        }
      ],
      "stateMutability": "view",
      "type": "function"
    },
    {
      "inputs": [
        {
          "internalType": "address",
          "name": "from",
          "type": "address"
        },
        {
          "internalType": "address",
          "name": "to",
          "type": "address"
        },
        {
          "internalType": "uint256",
          "name": "tokenId",
          "type": "uint256"
        }
      ],
      "name": "transferFrom",
      "outputs": [],
      "stateMutability": "nonpayable",
      "type": "function"
    },
    {
      "inputs": [
        {
          "internalType": "address",
          "name": "newOwner",
          "type": "address"
        }
      ],
      "name": "transferOwnership",
      "outputs": [],
      "stateMutability": "nonpayable",
      "type": "function"
    },
    {
      "inputs": [],
      "name": "withdraw",
      "outputs": [],
      "stateMutability": "nonpayable",
      "type": "function"
    }
  ],
  "bytecode": "0x6080604052662386f26fc10000600e556103e8600f556005601060006101000a81548160ff021916908360ff1602179055506001601060016101000a81548160ff0219169083151502179055506000601060026101000a81548160ff0219169083151502179055503480156200007457600080fd5b506040518060400160405280600981526020017f50656e6775204e465400000000000000000000000000000000000000000000008152506040518060400160405280600481526020017f504e4755000000000000000000000000000000000000000000000000000000008152508160009080519060200190620000f992919062000209565b5080600190805190602001906200011292919062000209565b50505062000135620001296200013b60201b60201c565b6200014360201b60201c565b6200031e565b600033905090565b6000600a60009054906101000a900473ffffffffffffffffffffffffffffffffffffffff16905081600a60006101000a81548173ffffffffffffffffffffffffffffffffffffffff021916908373ffffffffffffffffffffffffffffffffffffffff1602179055508173ffffffffffffffffffffffffffffffffffffffff168173ffffffffffffffffffffffffffffffffffffffff167f8be0079c531659141344cd1fd0a4f28419497f9722a3daafe3b4186f6b6457e060405160405180910390a35050565b8280546200021790620002e8565b90600052602060002090601f0160209004810192826200023b576000855562000287565b82601f106200025657805160ff191683800117855562000287565b8280016001018555821562000287579182015b828111156200028657825182559160200191906001019062000269565b5b5090506200029691906200029a565b5090565b5b80821115620002b55760008160009055506001016200029b565b5090565b7f4e487b7100000000000000000000000000000000000000000000000000000000600052602260045260246000fd5b600060028204905060018216806200030157607f821691505b60208210811415620003185762000317620002b9565b5b50919050565b614004806200032e6000396000f3fe6080604052600436106101f95760003560e01c80636352211e1161010d578063a475b5dd116100a0578063d5abeb011161006f578063d5abeb01146106fe578063d62280b214610729578063e985e9c514610754578063eaf0b3e314610791578063f2fde38b146107ba576101f9565b8063a475b5dd14610656578063b187bd261461066d578063b88d4fde14610698578063c87b56dd146106c1576101f9565b80638da5cb5b116100dc5780638da5cb5b146105ac57806395d89b41146105d757806397d4ccd214610602578063a22cb4651461062d576101f9565b80636352211e146104ff5780636ecd23061461053c57806370a0823114610558578063715018a614610595576101f9565b806323b872dd1161019057806344a0d68a1161015f57806344a0d68a1461041a5780634f6ccce71461044357806354214f691461048057806355f804b3146104ab5780635f48f393146104d4576101f9565b806323b872dd146103745780632f745c591461039d5780633ccfd60b146103da57806342842e0e146103f1576101f9565b8063095ea7b3116101cc578063095ea7b3146102cc57806313faede6146102f557806316c38b3c1461032057806318160ddd14610349576101f9565b806301ffc9a7146101fe57806306fdde031461023b578063078eef2814610266578063081812fc1461028f575b600080fd5b34801561020a57600080fd5b50610225600480360381019061022091906128e8565b6107e3565b6040516102329190612930565b60405180910390f35b34801561024757600080fd5b5061025061085d565b60405161025d91906129e4565b60405180910390f35b34801561027257600080fd5b5061028d60048036038101906102889190612b3b565b6108ef565b005b34801561029b57600080fd5b506102b660048036038101906102b19190612bba565b610911565b6040516102c39190612c28565b60405180910390f35b3480156102d857600080fd5b506102f360048036038101906102ee9190612c6f565b610957565b005b34801561030157600080fd5b5061030a610a6f565b6040516103179190612cbe565b60405180910390f35b34801561032c57600080fd5b5061034760048036038101906103429190612d05565b610a75565b005b34801561035557600080fd5b5061035e610a9a565b60405161036b9190612cbe565b60405180910390f35b34801561038057600080fd5b5061039b60048036038101906103969190612d32565b610aab565b005b3480156103a957600080fd5b506103c460048036038101906103bf9190612c6f565b610b0b565b6040516103d19190612cbe565b60405180910390f35b3480156103e657600080fd5b506103ef610bb0565b005b3480156103fd57600080fd5b5061041860048036038101906104139190612d32565b610c38565b005b34801561042657600080fd5b50610441600480360381019061043c9190612bba565b610c58565b005b34801561044f57600080fd5b5061046a60048036038101906104659190612bba565b610c6a565b6040516104779190612cbe565b60405180910390f35b34801561048c57600080fd5b50610495610cdb565b6040516104a29190612930565b60405180910390f35b3480156104b757600080fd5b506104d260048036038101906104cd9190612b3b565b610cee565b005b3480156104e057600080fd5b506104e9610d10565b6040516104f69190612da1565b60405180910390f35b34801561050b57600080fd5b5061052660048036038101906105219190612bba565b610d23565b6040516105339190612c28565b60405180910390f35b61055660048036038101906105519190612de8565b610dd5565b005b34801561056457600080fd5b5061057f600480360381019061057a9190612e15565b610edd565b60405161058c9190612cbe565b60405180910390f35b3480156105a157600080fd5b506105aa610f95565b005b3480156105b857600080fd5b506105c1610fa9565b6040516105ce9190612c28565b60405180910390f35b3480156105e357600080fd5b506105ec610fd3565b6040516105f991906129e4565b60405180910390f35b34801561060e57600080fd5b50610617611065565b60405161062491906129e4565b60405180910390f35b34801561063957600080fd5b50610654600480360381019061064f9190612e42565b6110f3565b005b34801561066257600080fd5b5061066b611109565b005b34801561067957600080fd5b5061068261112e565b60405161068f9190612930565b60405180910390f35b3480156106a457600080fd5b506106bf60048036038101906106ba9190612f23565b611141565b005b3480156106cd57600080fd5b506106e860048036038101906106e39190612bba565b6111a3565b6040516106f591906129e4565b60405180910390f35b34801561070a57600080fd5b506107136112f4565b6040516107209190612cbe565b60405180910390f35b34801561073557600080fd5b5061073e6112fa565b60405161074b91906129e4565b60405180910390f35b34801561076057600080fd5b5061077b60048036038101906107769190612fa6565b611388565b6040516107889190612930565b60405180910390f35b34801561079d57600080fd5b506107b860048036038101906107b39190612fe6565b61141c565b005b3480156107c657600080fd5b506107e160048036038101906107dc9190612e15565b611432565b005b60007f780e9d63000000000000000000000000000000000000000000000000000000007bffffffffffffffffffffffffffffffffffffffffffffffffffffffff1916827bffffffffffffffffffffffffffffffffffffffffffffffffffffffff191614806108565750610855826114b6565b5b9050919050565b60606000805461086c90613055565b80601f016020809104026020016040519081016040528092919081815260200182805461089890613055565b80156108e55780601f106108ba576101008083540402835291602001916108e5565b820191906000526020600020905b8154815290600101906020018083116108c857829003601f168201915b5050505050905090565b6108f7611598565b80600d908051906020019061090d9291906127d9565b5050565b600061091c82611616565b6004600083815260200190815260200160002060009054906101000a900473ffffffffffffffffffffffffffffffffffffffff169050919050565b600061096282610d23565b90508073ffffffffffffffffffffffffffffffffffffffff168373ffffffffffffffffffffffffffffffffffffffff1614156109d3576040517f08c379a00000000000000000000000000000000000000000000000000000000081526004016109ca906130f9565b60405180910390fd5b8073ffffffffffffffffffffffffffffffffffffffff166109f2611661565b73ffffffffffffffffffffffffffffffffffffffff161480610a215750610a2081610a1b611661565b611388565b5b610a60576040517f08c379a0000000000000000000000000000000000000000000000000000000008152600401610a579061318b565b60405180910390fd5b610a6a8383611669565b505050565b600e5481565b610a7d611598565b80601060016101000a81548160ff02191690831515021790555050565b6000610aa6600b611722565b905090565b610abc610ab6611661565b82611730565b610afb576040517f08c379a0000000000000000000000000000000000000000000000000000000008152600401610af29061321d565b60405180910390fd5b610b068383836117c5565b505050565b6000610b1683610edd565b8210610b57576040517f08c379a0000000000000000000000000000000000000000000000000000000008152600401610b4e906132af565b60405180910390fd5b600660008473ffffffffffffffffffffffffffffffffffffffff1673ffffffffffffffffffffffffffffffffffffffff168152602001908152602001600020600083815260200190815260200160002054905092915050565b610bb8611598565b6000610bc2610fa9565b73ffffffffffffffffffffffffffffffffffffffff1647604051610be590613300565b60006040518083038185875af1925050503d8060008114610c22576040519150601f19603f3d011682016040523d82523d6000602084013e610c27565b606091505b5050905080610c3557600080fd5b50565b610c5383838360405180602001604052806000815250611141565b505050565b610c60611598565b80600e8190555050565b6000610c74611a2c565b8210610cb5576040517f08c379a0000000000000000000000000000000000000000000000000000000008152600401610cac90613387565b60405180910390fd5b60088281548110610cc957610cc86133a7565b5b90600052602060002001549050919050565b601060029054906101000a900460ff1681565b610cf6611598565b80600c9080519060200190610d0c9291906127d9565b5050565b601060009054906101000a900460ff1681565b6000806002600084815260200190815260200160002060009054906101000a900473ffffffffffffffffffffffffffffffffffffffff169050600073ffffffffffffffffffffffffffffffffffffffff168173ffffffffffffffffffffffffffffffffffffffff161415610dcc576040517f08c379a0000000000000000000000000000000000000000000000000000000008152600401610dc390613422565b60405180910390fd5b80915050919050565b601060019054906101000a900460ff1615610e25576040517f08c379a0000000000000000000000000000000000000000000000000000000008152600401610e1c9061348e565b60405180910390fd5b601060009054906101000a900460ff1660ff168160ff161115610e7d576040517f08c379a0000000000000000000000000000000000000000000000000000000008152600401610e7490613520565b60405180910390fd5b8060ff16600e54610e8e919061356f565b341015610ed0576040517f08c379a0000000000000000000000000000000000000000000000000000000008152600401610ec79061363b565b60405180910390fd5b610eda8133611a39565b50565b60008073ffffffffffffffffffffffffffffffffffffffff168273ffffffffffffffffffffffffffffffffffffffff161415610f4e576040517f08c379a0000000000000000000000000000000000000000000000000000000008152600401610f45906136cd565b60405180910390fd5b600360008373ffffffffffffffffffffffffffffffffffffffff1673ffffffffffffffffffffffffffffffffffffffff168152602001908152602001600020549050919050565b610f9d611598565b610fa76000611acc565b565b6000600a60009054906101000a900473ffffffffffffffffffffffffffffffffffffffff16905090565b606060018054610fe290613055565b80601f016020809104026020016040519081016040528092919081815260200182805461100e90613055565b801561105b5780601f106110305761010080835404028352916020019161105b565b820191906000526020600020905b81548152906001019060200180831161103e57829003601f168201915b5050505050905090565b600c805461107290613055565b80601f016020809104026020016040519081016040528092919081815260200182805461109e90613055565b80156110eb5780601f106110c0576101008083540402835291602001916110eb565b820191906000526020600020905b8154815290600101906020018083116110ce57829003601f168201915b505050505081565b6111056110fe611661565b8383611b92565b5050565b611111611598565b6001601060026101000a81548160ff021916908315150217905550565b601060019054906101000a900460ff1681565b61115261114c611661565b83611730565b611191576040517f08c379a00000000000000000000000000000000000000000000000000000000081526004016111889061321d565b60405180910390fd5b61119d84848484611cff565b50505050565b60606111ae82611d5b565b6111ed576040517f08c379a00000000000000000000000000000000000000000000000000000000081526004016111e49061375f565b60405180910390fd5b601060029054906101000a900460ff1661129357600d805461120e90613055565b80601f016020809104026020016040519081016040528092919081815260200182805461123a90613055565b80156112875780601f1061125c57610100808354040283529160200191611287565b820191906000526020600020905b81548152906001019060200180831161126a57829003601f168201915b505050505090506112ef565b6000600c80546112a290613055565b905014156112c1576040518060200160405280600081525090506112ef565b600c6112cc83611dc7565b6040516020016112dd92919061389b565b60405160208183030381529060405290505b919050565b600f5481565b600d805461130790613055565b80601f016020809104026020016040519081016040528092919081815260200182805461133390613055565b80156113805780601f1061135557610100808354040283529160200191611380565b820191906000526020600020905b81548152906001019060200180831161136357829003601f168201915b505050505081565b6000600560008473ffffffffffffffffffffffffffffffffffffffff1673ffffffffffffffffffffffffffffffffffffffff16815260200190815260200160002060008373ffffffffffffffffffffffffffffffffffffffff1673ffffffffffffffffffffffffffffffffffffffff16815260200190815260200160002060009054906101000a900460ff16905092915050565b611424611598565b61142e8282611a39565b5050565b61143a611598565b600073ffffffffffffffffffffffffffffffffffffffff168173ffffffffffffffffffffffffffffffffffffffff1614156114aa576040517f08c379a00000000000000000000000000000000000000000000000000000000081526004016114a19061393c565b60405180910390fd5b6114b381611acc565b50565b60007f80ac58cd000000000000000000000000000000000000000000000000000000007bffffffffffffffffffffffffffffffffffffffffffffffffffffffff1916827bffffffffffffffffffffffffffffffffffffffffffffffffffffffff1916148061158157507f5b5e139f000000000000000000000000000000000000000000000000000000007bffffffffffffffffffffffffffffffffffffffffffffffffffffffff1916827bffffffffffffffffffffffffffffffffffffffffffffffffffffffff1916145b80611591575061159082611f28565b5b9050919050565b6115a0611661565b73ffffffffffffffffffffffffffffffffffffffff166115be610fa9565b73ffffffffffffffffffffffffffffffffffffffff1614611614576040517f08c379a000000000000000000000000000000000000000000000000000000000815260040161160b906139a8565b60405180910390fd5b565b61161f81611d5b565b61165e576040517f08c379a000000000000000000000000000000000000000000000000000000000815260040161165590613422565b60405180910390fd5b50565b600033905090565b816004600083815260200190815260200160002060006101000a81548173ffffffffffffffffffffffffffffffffffffffff021916908373ffffffffffffffffffffffffffffffffffffffff160217905550808273ffffffffffffffffffffffffffffffffffffffff166116dc83610d23565b73ffffffffffffffffffffffffffffffffffffffff167f8c5be1e5ebec7d5bd14f71427d1e84f3dd0314c0f7b2291e5b200ac8c7c3b92560405160405180910390a45050565b600081600001549050919050565b60008061173c83610d23565b90508073ffffffffffffffffffffffffffffffffffffffff168473ffffffffffffffffffffffffffffffffffffffff16148061177e575061177d8185611388565b5b806117bc57508373ffffffffffffffffffffffffffffffffffffffff166117a484610911565b73ffffffffffffffffffffffffffffffffffffffff16145b91505092915050565b8273ffffffffffffffffffffffffffffffffffffffff166117e582610d23565b73ffffffffffffffffffffffffffffffffffffffff161461183b576040517f08c379a000000000000000000000000000000000000000000000000000000000815260040161183290613a3a565b60405180910390fd5b600073ffffffffffffffffffffffffffffffffffffffff168273ffffffffffffffffffffffffffffffffffffffff1614156118ab576040517f08c379a00000000000000000000000000000000000000000000000000000000081526004016118a290613acc565b60405180910390fd5b6118b6838383611f92565b6118c1600082611669565b6001600360008573ffffffffffffffffffffffffffffffffffffffff1673ffffffffffffffffffffffffffffffffffffffff16815260200190815260200160002060008282546119119190613aec565b925050819055506001600360008473ffffffffffffffffffffffffffffffffffffffff1673ffffffffffffffffffffffffffffffffffffffff16815260200190815260200160002060008282546119689190613b20565b92505081905550816002600083815260200190815260200160002060006101000a81548173ffffffffffffffffffffffffffffffffffffffff021916908373ffffffffffffffffffffffffffffffffffffffff160217905550808273ffffffffffffffffffffffffffffffffffffffff168473ffffffffffffffffffffffffffffffffffffffff167fddf252ad1be2c89b69c2b068fc378daa952ba7f163c4a11628f55a4df523b3ef60405160405180910390a4611a278383836120a6565b505050565b6000600880549050905090565b600f54611a46600b611722565b10611a86576040517f08c379a0000000000000000000000000000000000000000000000000000000008152600401611a7d90613bc2565b60405180910390fd5b60005b8260ff168160ff161015611ac757611aa1600b6120ab565b611ab482611aaf600b611722565b6120c1565b8080611abf90613be2565b915050611a89565b505050565b6000600a60009054906101000a900473ffffffffffffffffffffffffffffffffffffffff16905081600a60006101000a81548173ffffffffffffffffffffffffffffffffffffffff021916908373ffffffffffffffffffffffffffffffffffffffff1602179055508173ffffffffffffffffffffffffffffffffffffffff168173ffffffffffffffffffffffffffffffffffffffff167f8be0079c531659141344cd1fd0a4f28419497f9722a3daafe3b4186f6b6457e060405160405180910390a35050565b8173ffffffffffffffffffffffffffffffffffffffff168373ffffffffffffffffffffffffffffffffffffffff161415611c01576040517f08c379a0000000000000000000000000000000000000000000000000000000008152600401611bf890613c58565b60405180910390fd5b80600560008573ffffffffffffffffffffffffffffffffffffffff1673ffffffffffffffffffffffffffffffffffffffff16815260200190815260200160002060008473ffffffffffffffffffffffffffffffffffffffff1673ffffffffffffffffffffffffffffffffffffffff16815260200190815260200160002060006101000a81548160ff0219169083151502179055508173ffffffffffffffffffffffffffffffffffffffff168373ffffffffffffffffffffffffffffffffffffffff167f17307eab39ab6107e8899845ad3d59bd9653f200f220920489ca2b5937696c3183604051611cf29190612930565b60405180910390a3505050565b611d0a8484846117c5565b611d16848484846120df565b611d55576040517f08c379a0000000000000000000000000000000000000000000000000000000008152600401611d4c90613cea565b60405180910390fd5b50505050565b60008073ffffffffffffffffffffffffffffffffffffffff166002600084815260200190815260200160002060009054906101000a900473ffffffffffffffffffffffffffffffffffffffff1673ffffffffffffffffffffffffffffffffffffffff1614159050919050565b60606000821415611e0f576040518060400160405280600181526020017f30000000000000000000000000000000000000000000000000000000000000008152509050611f23565b600082905060005b60008214611e41578080611e2a90613d0a565b915050600a82611e3a9190613d82565b9150611e17565b60008167ffffffffffffffff811115611e5d57611e5c612a10565b5b6040519080825280601f01601f191660200182016040528015611e8f5781602001600182028036833780820191505090505b5090505b60008514611f1c57600182611ea89190613aec565b9150600a85611eb79190613db3565b6030611ec39190613b20565b60f81b818381518110611ed957611ed86133a7565b5b60200101907effffffffffffffffffffffffffffffffffffffffffffffffffffffffffffff1916908160001a905350600a85611f159190613d82565b9450611e93565b8093505050505b919050565b60007f01ffc9a7000000000000000000000000000000000000000000000000000000007bffffffffffffffffffffffffffffffffffffffffffffffffffffffff1916827bffffffffffffffffffffffffffffffffffffffffffffffffffffffff1916149050919050565b611f9d838383612276565b600073ffffffffffffffffffffffffffffffffffffffff168373ffffffffffffffffffffffffffffffffffffffff161415611fe057611fdb8161227b565b61201f565b8173ffffffffffffffffffffffffffffffffffffffff168373ffffffffffffffffffffffffffffffffffffffff161461201e5761201d83826122c4565b5b5b600073ffffffffffffffffffffffffffffffffffffffff168273ffffffffffffffffffffffffffffffffffffffff1614156120625761205d81612431565b6120a1565b8273ffffffffffffffffffffffffffffffffffffffff168273ffffffffffffffffffffffffffffffffffffffff16146120a05761209f8282612502565b5b5b505050565b505050565b6001816000016000828254019250508190555050565b6120db828260405180602001604052806000815250612581565b5050565b60006121008473ffffffffffffffffffffffffffffffffffffffff166125dc565b15612269578373ffffffffffffffffffffffffffffffffffffffff1663150b7a02612129611661565b8786866040518563ffffffff1660e01b815260040161214b9493929190613e39565b602060405180830381600087803b15801561216557600080fd5b505af192505050801561219657506040513d601f19601f820116820180604052508101906121939190613e9a565b60015b612219573d80600081146121c6576040519150601f19603f3d011682016040523d82523d6000602084013e6121cb565b606091505b50600081511415612211576040517f08c379a000000000000000000000000000000000000000000000000000000000815260040161220890613cea565b60405180910390fd5b805181602001fd5b63150b7a0260e01b7bffffffffffffffffffffffffffffffffffffffffffffffffffffffff1916817bffffffffffffffffffffffffffffffffffffffffffffffffffffffff19161491505061226e565b600190505b949350505050565b505050565b6008805490506009600083815260200190815260200160002081905550600881908060018154018082558091505060019003906000526020600020016000909190919091505550565b600060016122d184610edd565b6122db9190613aec565b90506000600760008481526020019081526020016000205490508181146123c0576000600660008673ffffffffffffffffffffffffffffffffffffffff1673ffffffffffffffffffffffffffffffffffffffff168152602001908152602001600020600084815260200190815260200160002054905080600660008773ffffffffffffffffffffffffffffffffffffffff1673ffffffffffffffffffffffffffffffffffffffff168152602001908152602001600020600084815260200190815260200160002081905550816007600083815260200190815260200160002081905550505b6007600084815260200190815260200160002060009055600660008573ffffffffffffffffffffffffffffffffffffffff1673ffffffffffffffffffffffffffffffffffffffff16815260200190815260200160002060008381526020019081526020016000206000905550505050565b600060016008805490506124459190613aec565b9050600060096000848152602001908152602001600020549050600060088381548110612475576124746133a7565b5b906000526020600020015490508060088381548110612497576124966133a7565b5b9060005260206000200181905550816009600083815260200190815260200160002081905550600960008581526020019081526020016000206000905560088054806124e6576124e5613ec7565b5b6001900381819060005260206000200160009055905550505050565b600061250d83610edd565b905081600660008573ffffffffffffffffffffffffffffffffffffffff1673ffffffffffffffffffffffffffffffffffffffff168152602001908152602001600020600083815260200190815260200160002081905550806007600084815260200190815260200160002081905550505050565b61258b83836125ff565b61259860008484846120df565b6125d7576040517f08c379a00000000000000000000000000000000000000000000000000000000081526004016125ce90613cea565b60405180910390fd5b505050565b6000808273ffffffffffffffffffffffffffffffffffffffff163b119050919050565b600073ffffffffffffffffffffffffffffffffffffffff168273ffffffffffffffffffffffffffffffffffffffff16141561266f576040517f08c379a000000000000000000000000000000000000000000000000000000000815260040161266690613f42565b60405180910390fd5b61267881611d5b565b156126b8576040517f08c379a00000000000000000000000000000000000000000000000000000000081526004016126af90613fae565b60405180910390fd5b6126c460008383611f92565b6001600360008473ffffffffffffffffffffffffffffffffffffffff1673ffffffffffffffffffffffffffffffffffffffff16815260200190815260200160002060008282546127149190613b20565b92505081905550816002600083815260200190815260200160002060006101000a81548173ffffffffffffffffffffffffffffffffffffffff021916908373ffffffffffffffffffffffffffffffffffffffff160217905550808273ffffffffffffffffffffffffffffffffffffffff16600073ffffffffffffffffffffffffffffffffffffffff167fddf252ad1be2c89b69c2b068fc378daa952ba7f163c4a11628f55a4df523b3ef60405160405180910390a46127d5600083836120a6565b5050565b8280546127e590613055565b90600052602060002090601f016020900481019282612807576000855561284e565b82601f1061282057805160ff191683800117855561284e565b8280016001018555821561284e579182015b8281111561284d578251825591602001919060010190612832565b5b50905061285b919061285f565b5090565b5b80821115612878576000816000905550600101612860565b5090565b6000604051905090565b600080fd5b600080fd5b60007fffffffff0000000000000000000000000000000000000000000000000000000082169050919050565b6128c581612890565b81146128d057600080fd5b50565b6000813590506128e2816128bc565b92915050565b6000602082840312156128fe576128fd612886565b5b600061290c848285016128d3565b91505092915050565b60008115159050919050565b61292a81612915565b82525050565b60006020820190506129456000830184612921565b92915050565b600081519050919050565b600082825260208201905092915050565b60005b8381101561298557808201518184015260208101905061296a565b83811115612994576000848401525b50505050565b6000601f19601f8301169050919050565b60006129b68261294b565b6129c08185612956565b93506129d0818560208601612967565b6129d98161299a565b840191505092915050565b600060208201905081810360008301526129fe81846129ab565b905092915050565b600080fd5b600080fd5b7f4e487b7100000000000000000000000000000000000000000000000000000000600052604160045260246000fd5b612a488261299a565b810181811067ffffffffffffffff82111715612a6757612a66612a10565b5b80604052505050565b6000612a7a61287c565b9050612a868282612a3f565b919050565b600067ffffffffffffffff821115612aa657612aa5612a10565b5b612aaf8261299a565b9050602081019050919050565b82818337600083830152505050565b6000612ade612ad984612a8b565b612a70565b905082815260208101848484011115612afa57612af9612a0b565b5b612b05848285612abc565b509392505050565b600082601f830112612b2257612b21612a06565b5b8135612b32848260208601612acb565b91505092915050565b600060208284031215612b5157612b50612886565b5b600082013567ffffffffffffffff811115612b6f57612b6e61288b565b5b612b7b84828501612b0d565b91505092915050565b6000819050919050565b612b9781612b84565b8114612ba257600080fd5b50565b600081359050612bb481612b8e565b92915050565b600060208284031215612bd057612bcf612886565b5b6000612bde84828501612ba5565b91505092915050565b600073ffffffffffffffffffffffffffffffffffffffff82169050919050565b6000612c1282612be7565b9050919050565b612c2281612c07565b82525050565b6000602082019050612c3d6000830184612c19565b92915050565b612c4c81612c07565b8114612c5757600080fd5b50565b600081359050612c6981612c43565b92915050565b60008060408385031215612c8657612c85612886565b5b6000612c9485828601612c5a565b9250506020612ca585828601612ba5565b9150509250929050565b612cb881612b84565b82525050565b6000602082019050612cd36000830184612caf565b92915050565b612ce281612915565b8114612ced57600080fd5b50565b600081359050612cff81612cd9565b92915050565b600060208284031215612d1b57612d1a612886565b5b6000612d2984828501612cf0565b91505092915050565b600080600060608486031215612d4b57612d4a612886565b5b6000612d5986828701612c5a565b9350506020612d6a86828701612c5a565b9250506040612d7b86828701612ba5565b9150509250925092565b600060ff82169050919050565b612d9b81612d85565b82525050565b6000602082019050612db66000830184612d92565b92915050565b612dc581612d85565b8114612dd057600080fd5b50565b600081359050612de281612dbc565b92915050565b600060208284031215612dfe57612dfd612886565b5b6000612e0c84828501612dd3565b91505092915050565b600060208284031215612e2b57612e2a612886565b5b6000612e3984828501612c5a565b91505092915050565b60008060408385031215612e5957612e58612886565b5b6000612e6785828601612c5a565b9250506020612e7885828601612cf0565b9150509250929050565b600067ffffffffffffffff821115612e9d57612e9c612a10565b5b612ea68261299a565b9050602081019050919050565b6000612ec6612ec184612e82565b612a70565b905082815260208101848484011115612ee257612ee1612a0b565b5b612eed848285612abc565b509392505050565b600082601f830112612f0a57612f09612a06565b5b8135612f1a848260208601612eb3565b91505092915050565b60008060008060808587031215612f3d57612f3c612886565b5b6000612f4b87828801612c5a565b9450506020612f5c87828801612c5a565b9350506040612f6d87828801612ba5565b925050606085013567ffffffffffffffff811115612f8e57612f8d61288b565b5b612f9a87828801612ef5565b91505092959194509250565b60008060408385031215612fbd57612fbc612886565b5b6000612fcb85828601612c5a565b9250506020612fdc85828601612c5a565b9150509250929050565b60008060408385031215612ffd57612ffc612886565b5b600061300b85828601612dd3565b925050602061301c85828601612c5a565b9150509250929050565b7f4e487b7100000000000000000000000000000000000000000000000000000000600052602260045260246000fd5b6000600282049050600182168061306d57607f821691505b6020821081141561308157613080613026565b5b50919050565b7f4552433732313a20617070726f76616c20746f2063757272656e74206f776e6560008201527f7200000000000000000000000000000000000000000000000000000000000000602082015250565b60006130e3602183612956565b91506130ee82613087565b604082019050919050565b60006020820190508181036000830152613112816130d6565b9050919050565b7f4552433732313a20617070726f76652063616c6c6572206973206e6f7420746f60008201527f6b656e206f776e6572206e6f7220617070726f76656420666f7220616c6c0000602082015250565b6000613175603e83612956565b915061318082613119565b604082019050919050565b600060208201905081810360008301526131a481613168565b9050919050565b7f4552433732313a2063616c6c6572206973206e6f7420746f6b656e206f776e6560008201527f72206e6f7220617070726f766564000000000000000000000000000000000000602082015250565b6000613207602e83612956565b9150613212826131ab565b604082019050919050565b60006020820190508181036000830152613236816131fa565b9050919050565b7f455243373231456e756d657261626c653a206f776e657220696e646578206f7560008201527f74206f6620626f756e6473000000000000000000000000000000000000000000602082015250565b6000613299602b83612956565b91506132a48261323d565b604082019050919050565b600060208201905081810360008301526132c88161328c565b9050919050565b600081905092915050565b50565b60006132ea6000836132cf565b91506132f5826132da565b600082019050919050565b600061330b826132dd565b9150819050919050565b7f455243373231456e756d657261626c653a20676c6f62616c20696e646578206f60008201527f7574206f6620626f756e64730000000000000000000000000000000000000000602082015250565b6000613371602c83612956565b915061337c82613315565b604082019050919050565b600060208201905081810360008301526133a081613364565b9050919050565b7f4e487b7100000000000000000000000000000000000000000000000000000000600052603260045260246000fd5b7f4552433732313a20696e76616c696420746f6b656e2049440000000000000000600082015250565b600061340c601883612956565b9150613417826133d6565b602082019050919050565b6000602082019050818103600083015261343b816133ff565b9050919050565b7f546f6b656e732063616e2774206265206d696e7465642063757272656e746c79600082015250565b6000613478602083612956565b915061348382613442565b602082019050919050565b600060208201905081810360008301526134a78161346b565b9050919050565b7f43616e2774206d696e74206d6f726520746f6b656e73207468616e20616c6c6f60008201527f7765640000000000000000000000000000000000000000000000000000000000602082015250565b600061350a602383612956565b9150613515826134ae565b604082019050919050565b60006020820190508181036000830152613539816134fd565b9050919050565b7f4e487b7100000000000000000000000000000000000000000000000000000000600052601160045260246000fd5b600061357a82612b84565b915061358583612b84565b9250817fffffffffffffffffffffffffffffffffffffffffffffffffffffffffffffffff04831182151516156135be576135bd613540565b5b828202905092915050565b7f5472616e73616374696f6e20646f65736e277420636f6e7461696e20656e6f7560008201527f676820657468657220746f206d696e742074686520746f6b656e730000000000602082015250565b6000613625603b83612956565b9150613630826135c9565b604082019050919050565b6000602082019050818103600083015261365481613618565b9050919050565b7f4552433732313a2061646472657373207a65726f206973206e6f74206120766160008201527f6c6964206f776e65720000000000000000000000000000000000000000000000602082015250565b60006136b7602983612956565b91506136c28261365b565b604082019050919050565b600060208201905081810360008301526136e6816136aa565b9050919050565b7f4552433732314d657461646174613a2055524920717565727920666f72206e6f60008201527f6e6578697374656e7420746f6b656e0000000000000000000000000000000000602082015250565b6000613749602f83612956565b9150613754826136ed565b604082019050919050565b600060208201905081810360008301526137788161373c565b9050919050565b600081905092915050565b60008190508160005260206000209050919050565b600081546137ac81613055565b6137b6818661377f565b945060018216600081146137d157600181146137e257613815565b60ff19831686528186019350613815565b6137eb8561378a565b60005b8381101561380d578154818901526001820191506020810190506137ee565b838801955050505b50505092915050565b60006138298261294b565b613833818561377f565b9350613843818560208601612967565b80840191505092915050565b7f2e6a736f6e000000000000000000000000000000000000000000000000000000600082015250565b600061388560058361377f565b91506138908261384f565b600582019050919050565b60006138a7828561379f565b91506138b3828461381e565b91506138be82613878565b91508190509392505050565b7f4f776e61626c653a206e6577206f776e657220697320746865207a65726f206160008201527f6464726573730000000000000000000000000000000000000000000000000000602082015250565b6000613926602683612956565b9150613931826138ca565b604082019050919050565b6000602082019050818103600083015261395581613919565b9050919050565b7f4f776e61626c653a2063616c6c6572206973206e6f7420746865206f776e6572600082015250565b6000613992602083612956565b915061399d8261395c565b602082019050919050565b600060208201905081810360008301526139c181613985565b9050919050565b7f4552433732313a207472616e736665722066726f6d20696e636f72726563742060008201527f6f776e6572000000000000000000000000000000000000000000000000000000602082015250565b6000613a24602583612956565b9150613a2f826139c8565b604082019050919050565b60006020820190508181036000830152613a5381613a17565b9050919050565b7f4552433732313a207472616e7366657220746f20746865207a65726f2061646460008201527f7265737300000000000000000000000000000000000000000000000000000000602082015250565b6000613ab6602483612956565b9150613ac182613a5a565b604082019050919050565b60006020820190508181036000830152613ae581613aa9565b9050919050565b6000613af782612b84565b9150613b0283612b84565b925082821015613b1557613b14613540565b5b828203905092915050565b6000613b2b82612b84565b9150613b3683612b84565b9250827fffffffffffffffffffffffffffffffffffffffffffffffffffffffffffffffff03821115613b6b57613b6a613540565b5b828201905092915050565b7f4d6178696d756d20537570706c79207265616368656400000000000000000000600082015250565b6000613bac601683612956565b9150613bb782613b76565b602082019050919050565b60006020820190508181036000830152613bdb81613b9f565b9050919050565b6000613bed82612d85565b915060ff821415613c0157613c00613540565b5b600182019050919050565b7f4552433732313a20617070726f766520746f2063616c6c657200000000000000600082015250565b6000613c42601983612956565b9150613c4d82613c0c565b602082019050919050565b60006020820190508181036000830152613c7181613c35565b9050919050565b7f4552433732313a207472616e7366657220746f206e6f6e20455243373231526560008201527f63656976657220696d706c656d656e7465720000000000000000000000000000602082015250565b6000613cd4603283612956565b9150613cdf82613c78565b604082019050919050565b60006020820190508181036000830152613d0381613cc7565b9050919050565b6000613d1582612b84565b91507fffffffffffffffffffffffffffffffffffffffffffffffffffffffffffffffff821415613d4857613d47613540565b5b600182019050919050565b7f4e487b7100000000000000000000000000000000000000000000000000000000600052601260045260246000fd5b6000613d8d82612b84565b9150613d9883612b84565b925082613da857613da7613d53565b5b828204905092915050565b6000613dbe82612b84565b9150613dc983612b84565b925082613dd957613dd8613d53565b5b828206905092915050565b600081519050919050565b600082825260208201905092915050565b6000613e0b82613de4565b613e158185613def565b9350613e25818560208601612967565b613e2e8161299a565b840191505092915050565b6000608082019050613e4e6000830187612c19565b613e5b6020830186612c19565b613e686040830185612caf565b8181036060830152613e7a8184613e00565b905095945050505050565b600081519050613e94816128bc565b92915050565b600060208284031215613eb057613eaf612886565b5b6000613ebe84828501613e85565b91505092915050565b7f4e487b7100000000000000000000000000000000000000000000000000000000600052603160045260246000fd5b7f4552433732313a206d696e7420746f20746865207a65726f2061646472657373600082015250565b6000613f2c602083612956565b9150613f3782613ef6565b602082019050919050565b60006020820190508181036000830152613f5b81613f1f565b9050919050565b7f4552433732313a20746f6b656e20616c7265616479206d696e74656400000000600082015250565b6000613f98601c83612956565b9150613fa382613f62565b602082019050919050565b60006020820190508181036000830152613fc781613f8b565b905091905056fea2646970667358221220519da30e990090e8b9090d0d94447d221b26fb29a92d60727e7d78bb59dee57164736f6c63430008090033",
  "linkReferences": {},
  "deployedLinkReferences": {}
}